{
  "contractName": "Purchase",
  "abi": [
    {
      "payable": true,
      "stateMutability": "payable",
      "type": "fallback"
    },
    {
      "constant": true,
      "inputs": [
        {
          "internalType": "uint256",
          "name": "",
          "type": "uint256"
        }
      ],
      "name": "buyers",
      "outputs": [
        {
          "internalType": "address",
          "name": "",
          "type": "address"
        }
      ],
      "payable": false,
      "stateMutability": "view",
      "type": "function"
    },
    {
      "constant": false,
      "inputs": [],
      "name": "returnEth",
      "outputs": [],
      "payable": true,
      "stateMutability": "payable",
      "type": "function"
    },
    {
      "constant": false,
      "inputs": [
        {
          "internalType": "uint256",
          "name": "itemId",
          "type": "uint256"
        }
      ],
      "name": "buy",
      "outputs": [
        {
          "internalType": "uint256",
          "name": "",
          "type": "uint256"
        }
      ],
      "payable": true,
      "stateMutability": "payable",
      "type": "function"
    },
    {
      "constant": true,
      "inputs": [],
      "name": "getBuyers",
      "outputs": [
        {
          "internalType": "address[16]",
          "name": "",
          "type": "address[16]"
        }
      ],
      "payable": false,
      "stateMutability": "view",
      "type": "function"
    }
  ],
  "bytecode": "0x608060405234801561001057600080fd5b50610334806100206000396000f3fe60806040526004361061003f5760003560e01c8063d96a094a14610041578063e3f9ba0e14610083578063f2aa82181461008d578063f64bfaba14610108575b005b61006d6004803603602081101561005757600080fd5b810190808035906020019092919050505061015b565b6040518082815260200191505060405180910390f35b61008b6101df565b005b34801561009957600080fd5b506100c6600480360360208110156100b057600080fd5b8101908080359060200190929190505050610228565b604051808273ffffffffffffffffffffffffffffffffffffffff1673ffffffffffffffffffffffffffffffffffffffff16815260200191505060405180910390f35b34801561011457600080fd5b5061011d61025b565b6040518082601060200280838360005b8381101561014857808201518184015260208101905061012d565b5050505090500191505060405180910390f35b600080821015801561016e5750600f8211155b61017757600080fd5b66038d7ea4c68000341461018a57600080fd5b336000836010811061019857fe5b0160006101000a81548173ffffffffffffffffffffffffffffffffffffffff021916908373ffffffffffffffffffffffffffffffffffffffff160217905550819050919050565b3373ffffffffffffffffffffffffffffffffffffffff166108fc349081150290604051600060405180830381858888f19350505050158015610225573d6000803e3d6000fd5b50565b6000816010811061023557fe5b016000915054906101000a900473ffffffffffffffffffffffffffffffffffffffff1681565b6102636102dc565b60006010806020026040519081016040528092919082601080156102d2576020028201915b8160009054906101000a900473ffffffffffffffffffffffffffffffffffffffff1673ffffffffffffffffffffffffffffffffffffffff1681526020019060010190808311610288575b5050505050905090565b60405180610200016040528060109060208202803883398082019150509050509056fea265627a7a723158207f0cb3def2e5c602ab8c96a736b7076e6f704049e27e9b352d96c433bc06d23364736f6c63430005100032",
  "source": "//SPDX-License-Identifier: UNLICENSED\npragma solidity ^0.5.16;\n\ncontract Purchase {\n    address[16] public buyers;\n\n    function returnEth() public payable{\n        msg.sender.transfer(msg.value);\n    }\n\n    function buy(uint itemId) public payable returns (uint) {\n        require(itemId >= 0 && itemId <= 15);\n        require(msg.value==0.001 ether);\n        buyers[itemId] = msg.sender;\n        return itemId;\n    }\n\n    function getBuyers() public view returns (address[16] memory) {\n        return buyers;\n    }\n\n    function() external payable{\n\n    }\n\n}\n\n\n/*contract Purchase {\n    struct Item {\n        string name; \n        uint ID;\n        uint price;\n        string type;\n        string condition;\n        address owner;\n    }\n\n    function addItem() public {\n        Items memory someItem = addItem(\"table\",10,10000,\"furniture\",\"new\");\n        example = someStruct;\n    }\n}*/\n\n",
  "sourcePath": "/Users/kaelynliu/Documents/blockchain/shop/contracts/Purchase.sol",
  "compiler": {
    "name": "solc",
    "version": "0.5.16+commit.9c3226ce.Emscripten.clang"
  },
  "schemaVersion": "3.3.3",
  "updatedAt": "2021-02-04T05:58:04.062Z",
  "networkType": "ethereum",
  "devdoc": {
    "methods": {}
  },
  "userdoc": {
    "methods": {}
  }
}